:100000000C943A000C9457000C9457000C94570031
:100010000C9457000C9457000C9457000C94570004
:100020000C9457000C9457000C9457000C945700F4
:100030000C9457000C9457000C9457000C945700E4
:100040000C9457000C9457000C9457000C945700D4
:100050000C9457000C9457000C9457000C945700C4
:100060000C9457000C9457000C9457000C945700B4
:100070000C94570011241FBECFEFD4E0DEBFCDBFDC
:1000800012E0A0E0B1E0EEEAFBE002C005900D92C4
:10009000AE30B107D9F722E0AEE0B2E001C01D9268
:1000A000A831B207E1F70E94FB030C94D5050C942C
:1000B00000009C01FC01FF2795A1832F80958923D7
:1000C00085A308959C01FC01FF2784A1832B84A3B1
:1000D00095A1892F832B85A381E00895CF93DF938A
:1000E000CEE0D1E0899199910E94620081E0CC310B
:1000F000D807C1F783E090E40E94620080E090E8B6
:100100000E94620083E090E10E94620083E090E838
:100110000E94620083E090E2DF91CF910C94620034
:10012000FC0183961082118212821382148235960A
:10013000E817F907B9F70895EEE0F1E081919191A0
:10014000DC01BB2795968C919597892B95968C937E
:1001500081E0EC31F80791F7E4E0F1E081919191D1
:10016000DC01BB2795968C919597892B95968C935E
:1001700081E0EE30F80791F70895EF92FF920F9328
:100180001F93CF93DF93DC017B019396EC919397C0
:1001900011964C911197F0E083E0EE0FFF1F8A95C6
:1001A000E1F7EA0FFB1F00E010E021E08381840FFC
:1001B0008630A1F018169CF4082E000C990B0196BD
:1001C00065E070E00E94E4048E0D9F1D52813C9119
:1001D000350F830F911DEC018881811120E00F5FA5
:1001E0001F4F32960430110509F7822FDF91CF910E
:1001F0001F910F91FF90EF900895E82FF0E0EE0F20
:10020000FF1FEC5FFE4F808191810C945900FF929B
:100210000F931F93CF93DF93EC01F62E00E010E0D5
:100220008BA190E0880F991F880F991F800F911F55
:10023000FC013196EE0FFF1FEC0FFD1F308128816E
:10024000230F2F1111C0880F991FFE01E80FF91F0E
:10025000E3818981E80FF0E0EE0FFF1FE25FFE4FC0
:10026000808191810E9459000F5F1F4F043011055A
:10027000B9F6DF91CF911F910F91FF9008950F93E1
:100280001F93CF93DF938C01060F111DCEE0D1E0B9
:10029000F8018081882321F0888199810E9459008A
:1002A0000B5F1F4F2296F1E0CC31DF0789F7DF911A
:1002B000CF911F910F9108951092850010928400A4
:1002C00008950F931F93CF93DF93CDB7DEB7C75E2B
:1002D000D1090FB6F894DEBF0FBECDBF8C0181E20D
:1002E000E1ECF1E0DE01119601900D928A95E1F7C3
:1002F00081E2EFE7F1E0DE01929601900D928A959E
:10030000E1F781E2E0EAF1E0DE01AD5BBF4F019091
:100310000D928A95E1F781E2E2EEF1E0DE01AC595F
:10032000BF4F01900D928A95E1F781E2EEE5F1E091
:10033000DE01AB57BF4F01900D928A95E1F781E244
:10034000EDE3F1E0DE01AA55BF4F01900D928A95D1
:10035000E1F781E2ECE1F1E0DE01A953BF4F01904A
:100360000D928A95E1F70E946B0522E0F801208347
:10037000118267E070E00E940905992761E270E050
:100380000E94E404E1E0F0E0EC0FFD1FE80FF91F2C
:1003900081E2D801129601900D928A95E1F7F80159
:1003A00013A21092850010928400C951DF4F0FB63E
:1003B000F894DEBF0FBECDBFDF91CF911F910F919B
:1003C00008951F93CF93DF93DC01EB0120E030E031
:1003D00011E093968C91939790E0880F991F880F66
:1003E000991F820F931FFC013196EE0FFF1FEA0F3A
:1003F000FB1F50814C91450F4530B8F4880F991F71
:10040000FD01E80FF91F938111968C911197890FC7
:10041000873058F490E065E070E00E94E4048C0FAF
:100420009D1FFC01E40FF11D10832F5F3F4F24300F
:10043000310579F6DF91CF911F910895AF92BF9268
:10044000CF92DF92EF92FF920F931F93CF93DF93A0
:10045000DC015B019396EC919397CC90F0E083E004
:10046000EE0FFF1F8A95E1F7EA0FFB1F00E010E097
:10047000DD24D394E42E440FFF0882818C0D970174
:10048000280F311D25303105A8F4938111968C91E8
:100490001197890F87FD0FC0082E000C990B65E09E
:1004A00070E00E94E4048A0D9B1D280F391FE901AA
:1004B00088818111D12C0F5F1F4F329604301105B6
:1004C000E1F68D2DDF91CF911F910F91FF90EF906D
:1004D000DF90CF90BF90AF9008951F93CF93DF939D
:1004E000FC01BC016D5D7F4F9C01A9014B5F5F4F1B
:1004F000D90181E09D91911101C080E04A175B070D
:10050000C9F78823A9F0E217F30769F0D901159715
:10051000E9019A2F8B2F1D911993A217B307D9F7D1
:10052000292F382FF0CF1082118212821382148269
:100530009A0146175707C9F6DF91CF911F91089589
:10054000CF92DF92EF92FF920F931F93CF93DF939F
:10055000EC018B0182E00E945C038823B1F0B801BA
:10056000CE010E94BD00882321F089818F5F89839D
:1005700056C0B801CE01DF91CF911F910F91FF902E
:10058000EF90DF90CF900C94E10180E00E945C033B
:10059000882339F1CAA0D12C8BA190E00196B60135
:1005A0000E9409057C018BA340E0B801CE010E94A6
:1005B0001E02811134C04FEFB801CE010E941E020D
:1005C00081112AC041E0B801CE010E941E028111B2
:1005D00014C0C70199270197B6010E9409058BA392
:1005E0001EC081E00E945C03882351F041E0B80105
:1005F000CE010E941E02882391F088818F5F0EC079
:1006000083E00E945C03882351F04FEFB801CE01D4
:100610000E941E02882319F0888181508883DF910F
:10062000CF911F910F91FF90EF90DF90CF900895A1
:10063000E1E6F0E080E880831082A89584B7877FA8
:1006400084BFE0E6F0E080818861808310820895B5
:100650006230710519F170F46130710559F5FC01D2
:10066000FF2724A1392F3095922F932394A385A19E
:1006700083231DC06330710541F064307105D1F4EE
:10068000FC01FF2784A1892B0FC0FC01FF2784A157
:10069000892B84A385A19095892309C0FC01FF279C
:1006A00084A1292F2095822384A385A1892B85A34A
:1006B00081E0089580E00895E82FF0E0EE0FFF1F3D
:1006C000E25FFD4F8081882321F0918181E08927BD
:1006D00002C080E090E081700895E82FF0E0EE0F16
:1006E000FF1FE25FFD4F8081811102C0818102C046
:1006F00080E090E081700895E82FF0E0EE0FFF1F9A
:10070000E25FFD4F80810895E82FF0E0EE0FFF1FBC
:10071000E25FFD4F908181E0892708957F928F925B
:100720009F92AF92BF92CF92DF92EF92FF920F9380
:100730001F93CF93DF93CEE0D2E053E0C52E52E07B
:10074000D52E66E0762E88818983F601019111917C
:100750006F015801BB24F50124A1E12EFF2485A1DE
:1007600090E08E219F2130E02E213F21232B31F07C
:10077000892B51F433E0832E912C0DC0892B41F449
:1007800088248394912C07C094E0892E912C03C077
:1007900082E0882E912C64E070E0C8010E9428035A
:1007A00062E070E0C8010E942803872D8A95F1F766
:1007B000F50183A190E0E822F92281E0EF2809F019
:1007C00080E08883B401C8010E9428032296F2E0E9
:1007D000C831DF0709F0B7CFDF91CF911F910F919B
:1007E000FF90EF90DF90CF90BF90AF909F908F9051
:1007F0007F90089508958F929F92AF92BF92CF926B
:10080000DF92EF92FF920F931F93CF93DF93CDB7B9
:10081000DEB7C754D1090FB6F894DEBF0FBECDBF07
:100820008E010F5F1F4F84E2F80111928A95E9F75C
:100830000E9418030E946E000E94FA0389E699E064
:100840000E947005CE0185960E9490000E94FA03D6
:100850001092800085E08093810010928200C80190
:100860000E9461011092850010928400E12CD12C2D
:10087000C12C85E0882E912C90E1A92E97E2B92E0B
:100880000E949C008E2D90E00196B4010E94090503
:10089000F82EE82E0E94FD006F2DC8010E9407016E
:1008A0006F2DCE0185960E943F01DD2009F443C0E3
:1008B000BE016B5D7F4FC8010E94BD00882321F0FF
:1008C0008A818F5F8A8337C0BE016B5D7F4FC8010D
:1008D0000E94E101CE0185960E946D02C8010E942E
:1008E000610140E0BE016B5D7F4FC8010E941E02A6
:1008F000811118C04FEFBE016B5D7F4FC8010E9490
:100900001E02882319F0898181500BC041E0BE018D
:100910006B5D7F4FC8010E941E02882329F08981E8
:100920008F5F8983F12C02C0FF24F394109285001D
:100930001092840001C0F12C0E948E03BE016B5DF9
:100940007F4FC8010E94A002809184009091850091
:10095000B5010E94F5048938934110F0C1100EC012
:100960008091840090918500B5010E94F504D12CFE
:100970008838934130F4CC24C39403C0DD24D3944D
:10098000C12CFF2009F47CCF0E949C0083E090E101
:100990000E94590080E090E10E94590080E090E0C0
:1009A000C95BDF4F0FB6F894DEBF0FBECDBFDF913E
:1009B000CF911F910F91FF90EF90DF90CF90BF905C
:1009C000AF909F908F9008950024552704C0080E83
:1009D000591F880F991F009729F076956795B8F3EE
:1009E0007105B9F7802D952F0895AA1BBB1B51E106
:1009F00007C0AA1FBB1FA617B70710F0A61BB70B8F
:100A0000881F991F5A95A9F780959095BC01CD0133
:100A1000089597FB072E16F4009407D077FD09D0B0
:100A20000E94F50407FC05D03EF4909581959F4FF8
:100A30000895709561957F4F08958F929F92AF9220
:100A4000BF92CF92DF92EF92FF92CF93DF93EC01B0
:100A5000688179818A819B81611571058105910584
:100A600021F464E279ED8BE597E02DE133EF41E08D
:100A700050E00E94940549015A0127EA31E440E020
:100A800050E00E947B056B017C012CEE34EF4FEFB0
:100A90005FEFC501B4010E947B05DC01CB018C0D29
:100AA0009D1DAE1DBF1DB7FF03C00197A109B04832
:100AB00088839983AA83BB839F77DF91CF91FF902F
:100AC000EF90DF90CF90BF90AF909F908F90089560
:100AD0000E941D05089580E091E00E941D05089583
:100AE000A0E0B0E08093000190930101A093020187
:100AF000B09303010895EE27FF27AA27BB2708C05C
:100B0000A20FB31FE41FF51F220F331F441F551FF1
:100B1000969587957795679598F37040A9F7009714
:100B200099F7BD01CF010895052E97FB1EF400949F
:100B30000E94AB0557FD07D00E94B30507FC03D008
:100B40004EF40C94AB0550954095309521953F4F50
:100B50004F4F5F4F089590958095709561957F4FA9
:100B60008F4F9F4F0895A1E21A2EAA1BBB1BFD01B8
:100B70000DC0AA1FBB1FEE1FFF1FA217B307E4077C
:100B8000F50720F0A21BB30BE40BF50B661F771FD4
:100B9000881F991F1A9469F76095709580959095B4
:0E0BA0009B01AC01BD01CF010895F894FFCF79
:100BAE00010000000340008003100380032000407A
:100BBE0000200010000800040002000100000001E7
:100BCE000001FF01000000FF010001010000000014
:100BDE00000000000000000000000000020000FF06
:100BEE000000010101000000FFFF00FF01000000F6
:100BFE0000000000000000000000000000020000E5
:100C0E00FF000001000200000001010002000000D0
:100C1E00010000FF00FE0000FF00FE0000FF0400C8
:100C2E00000001000200FF0000FF000100020000B2
:100C3E0000000000000000000000000000000002A4
:100C4E000000FF000001FF01000000000000000096
:100C5E000000000000000000000000000000000086
:100C6E00010000FF00010000010000010000010072
:100C7E00FF0000FF00010000FF0000FF0000010068
:100C8E00FF040000000100020100000000FF01004F
:100C9E0002000000FF0000FF00FE0000FF00FE004B
:0E0CAE000001040380034003200080031000B7
:00000001FF
