:100000000C943A000C9457000C9457000C94570031
:100010000C9457000C9457000C9457000C94570004
:100020000C9457000C9457000C9457000C945700F4
:100030000C9457000C9457000C9457000C945700E4
:100040000C9457000C9457000C9457000C945700D4
:100050000C9457000C9457000C9457000C945700C4
:100060000C9457000C9457000C9457000C945700B4
:100070000C94570011241FBECFEFD4E0DEBFCDBFDC
:1000800011E0A0E0B1E0EAE4F9E002C005900D92D1
:10009000AC3CB107D9F721E0ACECB1E001C01D9256
:1000A000A63DB207E1F70E94F6020C94A3040C945B
:1000B00000009C01FC01FF2795A1832F80958923D7
:1000C00085A308959C01FC01FF2784A1832B84A3B1
:1000D00095A1892F832B85A381E00895CF93DF938A
:1000E000CEE0D1E0899199910E94620081E0CC310B
:1000F000D807C1F783E090E40E94620080E090E8B6
:100100000E94620083E090E10E94620083E090E838
:100110000E94620083E090E2DF91CF910C94620034
:10012000FC0183961082118212821382148235960A
:10013000E817F907B9F70895EEE0F1E081919191A0
:10014000DC01BB2795968C919597892B95968C937E
:1001500081E0EC31F80791F7E4E0F1E081919191D1
:10016000DC01BB2795968C919597892B95968C935E
:1001700081E0EE30F80791F70895FC019C012C5FB7
:100180003F4F80E09191911181E0E217F307D1F7A1
:100190000895EF92FF920F931F93CF93DF93DC01AB
:1001A0007B019396EC91939711964C911197F0E007
:1001B00083E0EE0FFF1F8A95E1F7EA0FFB1F04E0D3
:1001C00010E021E08381840F863081F090E0019679
:1001D00065E070E00E94B2038E0D9F1D52813C913C
:1001E000350F830F911DEC018881811120E00150B2
:1001F000110932960115110529F7822FDF91CF9150
:100200001F910F91FF90EF900895E82FF0E0EE0F0F
:10021000FF1FEC5FFE4F808191810C945900FF928B
:100220000F931F93CF93DF93EC01F62E00E010E0C5
:100230008BA190E0880F991F880F991F800F911F45
:10024000FC013196EE0FFF1FEC0FFD1F308128815E
:10025000230F2F1111C0880F991FFE01E80FF91FFE
:10026000E3818981E80FF0E0EE0FFF1FE25FFE4FB0
:10027000808191810E9459000F5F1F4F043011054A
:10028000B9F6DF91CF911F910F91FF9008950F93D1
:100290001F93CF93DF938C01060F111DCEE0D1E0A9
:1002A000F8018081882321F0888199810E9459007A
:1002B0000B5F1F4F2296F1E0CC31DF0789F7DF910A
:1002C000CF911F910F910895109285001092840094
:1002D00008950F931F93CF93DF93CDB7DEB7C55A21
:1002E000D1090FB6F894DEBF0FBECDBF8C0181E2FD
:1002F000EFE7F1E0DE01119601900D928A95E1F7AA
:1003000081E2EDE3F1E0DE01929601900D928A9593
:10031000E1F781E2EEE5F1E0DE01AD5BBF4F019078
:100320000D928A95E1F781E2E0EAF1E0DE01AC5955
:10033000BF4F01900D928A95E1F781E2ECE1F1E087
:10034000DE01AB57BF4F01900D928A95E1F70E94F5
:10035000390422E0F8012083118265E070E00E94F8
:10036000D703992761E270E00E94B203E1E0F0E078
:10037000EC0FFD1FE80FF91F81E2D80112960190E2
:100380000D928A95E1F781E0F80183A31092850030
:1003900010928400CB55DF4F0FB6F894DEBF0FBE2E
:1003A000CDBFDF91CF911F910F9108951F93CF93F0
:1003B000DF93DC01EB0120E030E011E093968C91BB
:1003C000939790E0880F991F880F991F820F931FB2
:1003D000FC013196EE0FFF1FEA0FFB1F50814C917D
:1003E000450F4530B8F4880F991FFD01E80FF91F3C
:1003F000938111968C911197890F873058F490E072
:1004000065E070E00E94B2038C0F9D1FFC01E40FB9
:10041000F11D10832F5F3F4F2430310579F6DF91B6
:10042000CF911F910895E1E6F0E080E8808310828B
:10043000A89584B7877F84BFE0E6F0E0808188617B
:100440008083108208956230710519F170F4613073
:10045000710559F5FC01FF2724A1392F3095922F02
:10046000932394A385A183231DC06330710541F0BC
:1004700064307105D1F4FC01FF2784A1892B0FC0E2
:10048000FC01FF2784A1892B84A385A19095892352
:1004900009C0FC01FF2784A1292F2095822384A372
:1004A00085A1892B85A381E0089580E00895E82F38
:1004B000F0E0EE0FFF1FE453FE4F8081882321F010
:1004C000918181E0892702C080E090E081700895E9
:1004D000E82FF0E0EE0FFF1FE453FE4F8081811103
:1004E00002C0818102C080E090E081700895E82F11
:1004F000F0E0EE0FFF1FE453FE4F80810895E82FD8
:10050000F0E0EE0FFF1FE453FE4F908181E089275A
:1005100008957F928F929F92AF92BF92CF92DF9277
:10052000EF92FF920F931F93CF93DF93CCECD1E028
:1005300051ECC52E51E0D52E66E0762E8881898358
:10054000F601019111916F015801BB24F50124A11D
:10055000E12EFF2485A190E08E219F2130E02E2105
:100560003F21232B31F0892B51F433E0832E912C42
:100570000DC0892B41F488248394912C07C094E00A
:10058000892E912C03C082E0882E912C64E070E0CB
:10059000C8010E94230262E070E0C8010E942302A9
:1005A000872D8A95F1F7F50183A190E0E822F922E1
:1005B00081E0EF2809F080E08883B401C8010E943F
:1005C00023022296F1E0C63DDF0709F0B7CFDF91A5
:1005D000CF911F910F91FF90EF90DF90CF90BF9040
:1005E000AF909F908F907F90089508958F929F92E3
:1005F000AF92BF92CF92DF92EF92FF920F931F9331
:10060000CF93DF93CDB7DEB7C754D1090FB6F894B7
:10061000DEBF0FBECDBF0E9413020E946E0080910C
:100620008400909185000E943E04CE0185960E9430
:1006300090000E94F5021092800085E08093810076
:10064000109282008E010F5F1F4F84E2F801119219
:100650008A95E9F7C8010E946901109285001092FD
:100660008400812CF12C912C85E0A82EB12C90E1F6
:10067000C92E97E2D92E0E949C00882D90E0019609
:10068000B5010E94D703E82E882E0E9405016E2D29
:10069000C8010E940F016E2DCE0185960E94470170
:1006A000FF20F9F0BE016B5D7F4FC8010E94C900B9
:1006B000882321F09A819F5F9A8313C0BE016B5DEE
:1006C0007F4FC8010E94D601C8010E946901CE0176
:1006D00085960E94BD00282F1092850010928400FC
:1006E00001C020E08091840090918500B6010E94B5
:1006F000C3038938934110F091100EC0809184009B
:1007000090918500B6010E94C303F12C8838934173
:1007100030F49924939403C0FF24F394912C222362
:1007200009F4A9CF0E949C0083E090E10E94590047
:1007300080E090E10E94590080E090E0C95BDF4FCB
:100740000FB6F894DEBF0FBECDBFDF91CF911F91E2
:100750000F91FF90EF90DF90CF90BF90AF909F9060
:100760008F9008950024552704C0080E591F880F44
:10077000991F009729F076956795B8F37105B9F739
:10078000802D952F0895AA1BBB1B51E107C0AA1FFE
:10079000BB1FA617B70710F0A61BB70B881F991F22
:1007A0005A95A9F780959095BC01CD01089597FBC6
:1007B000072E16F4009407D077FD09D00E94C303DA
:1007C00007FC05D03EF4909581959F4F0895709554
:1007D00061957F4F08958F929F92AF92BF92CF9273
:1007E000DF92EF92FF92CF93DF93EC0168817981E2
:1007F0008A819B81611571058105910521F464E26F
:1008000079ED8BE597E02DE133EF41E050E00E9478
:10081000620449015A0127EA31E440E050E00E94B5
:1008200049046B017C012CEE34EF4FEF5FEFC50103
:10083000B4010E944904DC01CB018C0D9D1DAE1D4D
:10084000BF1DB7FF03C00197A109B04888839983F2
:10085000AA83BB839F77DF91CF91FF90EF90DF90CA
:10086000CF90BF90AF909F908F9008950E94EB0320
:10087000089580E091E00E94EB030895A0E0B0E0CD
:100880008093000190930101A0930201B0930301B2
:100890000895EE27FF27AA27BB2708C0A20FB31F82
:1008A000E41FF51F220F331F441F551F9695879590
:1008B0007795679598F37040A9F7009799F7BD0170
:1008C000CF010895052E97FB1EF400940E94790431
:1008D00057FD07D00E94810407FC03D04EF40C940E
:1008E000790450954095309521953F4F4F4F5F4F7C
:1008F000089590958095709561957F4F8F4F9F4F8C
:100900000895A1E21A2EAA1BBB1BFD010DC0AA1F50
:10091000BB1FEE1FFF1FA217B307E407F50720F068
:10092000A21BB30BE40BF50B661F771F881F991FE3
:100930001A9469F760957095809590959B01AC012C
:0A094000BD01CF010895F894FFCF28
:10094A0001000000034000800310038003200040E0
:10095A000020001000080004000200010000FF004F
:10096A000001000200000001010002000000010075
:10097A0000FF00FE0000FF00FE0000FF0400000070
:10098A0001000200FF0000FF000100020000000059
:10099A00000000000000000000000000000200004B
:1009AA00FF000001FF01000000000000000000003D
:1009BA00000000000000000000000000000001002C
:1009CA0000FF000100000100000100000100FF001B
:1009DA0000FF00010000FF0000FF00000100FF040B
:1009EA000000000100020100000000FF01000200F7
:1009FA000000FF0000FF00FE0000FF00FE000001F3
:0C0A0A0004038003400320008003100060
:00000001FF
